:030A9B00014F0503
:0A0A91001209FDD2AF120A5E80FBCD
:1009FD0075FFDE75FFAD43B28075B167E4FFFE0F85
:100A0D00BF00010EE4B507F7EEB401F3E5B130E731
:100A1D00FB43B20853B2FB75E120E4F5E275E34404
:090A2D0043A401120A36020A7307
:100A360075F15053890F438920438710438E1075F3
:100A46008D70858D8BD28E75E74075F740E4F50C79
:080A5600F50AF50B75080122F9
:0300A3000209004F
:10090000C0E0C0D075D000C000E5F130E01BE50CC0
:100910007002F50A53F1FEE50CC39440500B740DC0
:10092000250AF8A6F2050C050AE5F130E12353F19A
:10093000FDE50CD394004016E50CB50A03750B00D9
:10094000740D250BF8E6F5F2050B150C8003750800
:0809500001D000D0D0D0E0324C
:0C0A8500E508B40106E4F50843F1022284
:100A5E00E50CD39400400DAF0D1209ADAF0D120889
:050A6E008C120A852234
:060A9E00014EFF014D00B6
:100A730075A43C75DA4275DB4275DC4275DD42D202
:020A8300DE2271
:0209AD00AB0796
:1009AF00EB24FE600824FD60082404700A740A809A
:1009BF000274F6254DF54DE54DD394C84005E4F589
:1009CF004D800AE54DD3945A4003754D5AE54D704D
:1009DF0005754EFF8015E54DFEC3E49400FF74646A
:0D09EF009EFE7C007D641209588F4E8B4FD8
:0109FC0022D8
:10088C0075DA4275DB4275DC4275DD42EF24FE60A1
:10089C001B14603614602014604124047055854E7E
:1008AC00FA75DB0275FBFF854EFC804175DA02752B
:1008BC00FAFF854EFB8009854EFA75DB0275FBFF4E
:1008CC0075DC0275FCFF854EFD2275DA0275FAFFA8
:1008DC00854EFB854EFC75DA02801575DA0275FAC9
:1008EC00FF75DB0275FBFF75DC0275FCFF75DD0225
:0408FC0075FDFF2265
:03000000020800F3
:0C080000787FE4F6D8FD75814F020847B0
:10095800BC000BBE0029EF8DF084FFADF022E4CC83
:10096800F875F008EF2FFFEE33FEEC33FCEE9DEC4C
:10097800984005FCEE9DFE0FD5F0E9E4CEFD22ED92
:10098800F8F5F0EE8420D21CFEADF075F008EF2FDC
:10099800FFED33FD4007985006D5F0F222C398FDCD
:0509A8000FD5F0EA226A
:10080C00020A91E493A3F8E493A34003F68001F267
:10081C0008DFF48029E493A3F85407240CC8C333ED
:10082C00C4540F4420C8834004F456800146F6DFBC
:10083C00E4800B0102040810204080900A9BE47EA7
:10084C00019360BCA3FF543F30E509541FFEE493B1
:10085C00A360010ECF54C025E060A840B8E493A378
:10086C00FAE493A3F8E493A3C8C582C8CAC583CAA3
:10087C00F0A3C8C582C8CAC583CADFE9DEE780BE5B
:010AA4000051
:00000001FF
